:100000000C94340018950000189500001895000015
:10001000189500001895000018950000189500002C
:10002000189500000C94980718950000189500008A
:10003000189500001895000018950000189500000C
:100040000C947600189500000C94C50B18950000D0
:1000500018950000189500001895000018950000EC
:1000600018950000189500008FEF8DBFC4ECE4E6F2
:100070004E2E88E08EBFD8E0F8E05F2EA89584B7BA
:10008000082E877F84BF88E1992780936000909332
:100090006000EEEFF7E0A0E0B1E088278D933197A4
:1000A000E9F789E18093C40080E08093C50088E18E
:1000B0008093C100662474B7777F74BF8FE180930B
:1000C000600087E0809360007091C1007068709359
:1000D000C1000E94360C85B5816085BD70916E00AF
:1000E000716070936E0081E686BD2DC00F938F9373
:1000F0008FB78F93AF93BF939F93ADE0B1E08D9196
:100100009C9101969C938E9300278130900711F467
:10011000289A0FC0903041F0803D07E0900748F0EA
:1001200000270D930C9305C012969D91891708F036
:10013000289881E686BD9F91BF91AF918F918FBF27
:100140008F910F91189586E08093B10080E08093A5
:10015000B0007091700071607093700086E08093C1
:10016000B10087E880937A0080E480937C0039981E
:100170003A983B983C983D98209A219A229A239A43
:10018000249A259A389A319829982A982B982C984D
:100190002D98409881E08093440183E0809353013F
:1001A00082E380930F0180E08093580180E0809388
:1001B000590178942D9A84EF91E00E9471092D984D
:1001C00084EF91E00E9471092D9AE1E0F0E00E9435
:1001D0000B092D9800917C00007F026000937C0049
:1001E0000E94AE09ADE5B1E08D939C938EEB8093B8
:1001F0000F0188EE93E00E94710900917C00007F5E
:10020000026000937C000E94AE09A7E1B1E08D93EB
:100210009C93E7E1F1E0D190E080FF2400270E9469
:10022000270AAFE5B1E00E94590AEDE5F1E0D1906F
:10023000E080FF2400270E94270A0E945E0AEFE563
:10024000F1E00E94030A0E94010BEDE0F0E0AFE54F
:10025000B1E00E940F0C85E080931201E2E1F1E031
:10026000D080EE24FF2400270E94270A0E945E0A05
:10027000EFE5F1E00E94030A0E94790AEDE0F0E068
:10028000AFE5B1E00E940F0C82E380930F01009173
:100290007C00007F036000937C000E94AE09A9E609
:1002A000B1E08D939C9300917C00007F04600093EB
:1002B0007C000E94AE09ABE6B1E08D939C93009167
:1002C0007C00007F056000937C000E94AE09ADE6D3
:1002D000B1E08D939C9300915301003018F011F020
:1002E0000C9474010C942C02A5E4B1E0E6E0F0E07B
:1002F0000E94390CA5E5B1E00D931C93A7E3B1E092
:100300004C93A5E5B1E00D911C91063950E015071D
:1003100081E008F080E08F93A7E6B1E00D911C9199
:100320000A365FEF150780E00CF481E09F91892B7E
:100330008F93A5E6B1E00D911C910A365FEF15078A
:1003400080E00CF481E09F91892B8F93A3E6B1E0CC
:100350000D911C910A365FEF150780E00CF481E0E7
:100360009F91892B882311F40C94D901A1E1B1E06C
:100370008C9183FB16F40C94C80189EC809358018E
:100380008AEC8093590182E0809357010C94D1014B
:100390008AEC8093580189EC8093590182E0809324
:1003A00057018CE291E0ABE5B1E08D939C930C9406
:1003B000290289EC8093580189EC8093590181E0EE
:1003C0008093570180E293E0ABE5B1E08D939C937D
:1003D00083E08093120140911201009153010417B0
:1003E00018F011F00C94F6010C940A0270911101AE
:1003F000777F7093110180E08093580189EC80939E
:10040000590181E0809357018CE291E0ABE5B1E0C6
:100410008D939C9383E0809312014091120100918F
:100420005301041710F00C942902709111017860A7
:100430007093110189EC8093580180E080935901F9
:1004400081E0809357018CE291E0ABE5B1E08D93C0
:100450009C9380E080935301A8E3B1E08C918030BD
:1004600011F40C948302E8E3F1E0AFE6B1E00E94FE
:100470000A0CA8E3B1E088278C93AFE6B1E0E8EA84
:10048000F8E10E94220C11F00C9458023FB6F89447
:10049000D201ECEAF8E10E94A80986E00E949209E4
:1004A0000E949C08229686E00E9483090C94830295
:1004B000E2EBF8E10E94220C11F00C9483023FB6AB
:1004C000F894D201EAEBF8E10E94A80980E10E94C9
:1004D00092090E949C08229680E10E9483090E9452
:1004E0007C063FB6F894D201EAECF8E10E94A80934
:1004F00084E00E9492090E949C08229684E00E9457
:1005000083090C940000A1E5B1E00D911C9100302D
:1005100050E0150711F00C943B033FB6F894A2E1AC
:10052000B1E0BA93AA930E94870622960091120125
:10053000003018F011F00C949F020C943B03809152
:100540001201809344013FB6F894A4E4B1E0AD9069
:10055000BB24A3E4B1E0AA0CBB1CAA0DBB1DBA933B
:10056000AA930E941C042296A1E1B1E08C9184FB25
:1005700016F40C94CF0200914401063010F40C9450
:10058000C802709111017061709311010C94CD0239
:10059000A4E4B1E08C918F5F8C930C94E202009103
:1005A0004401013018F011F00C94DD02709111013A
:1005B0007F7E709311010C94E202A4E4B1E08C916F
:1005C00081508C93A3E1B1E0E8E9F8E10E94780B57
:1005D000E3E1F1E00E94080AECE9F8E10E94620B15
:1005E0000E94790AEDE0F0E0A3E1B1E00E940F0C77
:1005F000E3E1F1E0A3E3B1E00E940F0CE4E4F1E0F9
:10060000D080EE24FF2400270E94270A0E945E0A61
:10061000E3E1F1E00E94030A0E94CF0AEDE0F0E07E
:10062000A3E1B1E00E940F0CE3E3F1E00E94080AAD
:10063000E3E1F1E00E94030A0E94010BEDE0F0E02B
:10064000A3E1B1E00E940F0CE0EAF8E10E946B0B1D
:10065000E3E1F1E00E94030A0E94100BEDE0F0E0FC
:100660000E94C509AFE0B1E0DC9282E390E0A1E531
:10067000B1E08D939C9300917C00007F0360009318
:100680007C000E94AE09A3E6B1E08D939C9300919B
:100690007C00007F046000937C000E94AE09A5E608
:1006A000B1E08D939C9300917C00007F05600093E6
:1006B0007C000E94AE09A7E6B1E08D939C93A3E66F
:1006C000B1E00D911C91A9E6B1E04D915C91041B44
:1006D000150BA3E6B1E00D931C93A5E6B1E00D91D7
:1006E0001C91ABE6B1E04D915C91041B150BA5E6A6
:1006F000B1E00D931C93A7E6B1E00D911C91ADE61E
:10070000B1E04D915C91041B150BA7E6B1E00D9390
:100710001C930FEF1FEFA3E6B1E04D915C91041B1A
:10072000150BA3E6B1E00D931C930FEF1FEFA5E6A9
:10073000B1E04D915C91041B150BA5E6B1E00D9362
:100740001C930FEF1FEFA7E6B1E04D915C91041BE6
:10075000150BA7E6B1E00D931C93A7E6B1E00D9150
:100760001C914AE050E0041B150BA7E6B1E00D9385
:100770001C93A3E6B1E00D911C914AE050E0041BEC
:10078000150BA3E6B1E00D931C933FB6F894A7E6D2
:10079000B1E08D919C91D2018D939C9382E00E9457
:1007A0009209A5E6B1E08D919C91D2018D939C9325
:1007B00082E00E949209A3E6B1E08D919C91D20162
:1007C0008D939C9382E00E9492090E942A072696AC
:1007D00086E00E94830983E080935301A1E1B1E0A8
:1007E0008C9181FB16F00C94F80381E08093530107
:1007F000A1E1B1E08C9182FB16F00C94020486E03A
:100800008093530100914301003011F00C940D04CA
:1008100080E283B986E0809343019FB7F89480918A
:100820006000886180936000877E809360009FBF36
:100830000C946B01F894FFCF3FBE82E00E948C09BC
:1008400080E090E0A881B9818D939C9380E0E4E101
:10085000F0E0A8E20E948A0BE6E281E00FEF0E943E
:10086000950BA881B9818D939C93A881B9810D9135
:100870001C91093150E0150718F011F00C94420456
:100880000C942604A881B9818D919C91AA81BB8189
:100890008D939C9382E0481A80E0580A229608952E
:1008A0003FBE84E00E948C0981E00E948C0981E0B7
:1008B0000E948C0981E00E948C0900E010E020E099
:1008C00030E0AE81BF810D931D932D933C9380E06A
:1008D000AC81BD818C93AA85BB850C91013010F051
:1008E0000C94760481E0AA85BB858C93AA85BB8590
:1008F0000C91A885B9854C91040FAA81BB810C93FA
:10090000AA81BB818C9181508C93AA81BB810C916F
:10091000063018F011F00C948F040C94930486E0C8
:10092000AA81BB818C93AA85BB858C91A881B98152
:100930008C93AA81BB814C91A881B9810C91041739
:1009400018F011F00C94CD04AE81BF810D911D9172
:100950002D913C91A881B981AD90BB24A3E4B1E075
:10096000AA0CBB1CAA0DBB1D4D915C916627772775
:100970000E94020CAE81BF810D931D932D933D9378
:10098000AC81BD818C918F5F8C93A881B9818C9152
:100990008F5F8C9310F40C949904AE81BF810D91FC
:1009A0001D912D913C91AC81BD814C9155276627BD
:1009B00077270E941409AE81BF814D935D936D939B
:1009C0007D93AE81BF818D919C91AC85BD858D93CA
:1009D0009C9387E0481A80E0580A289608953FBE05
:1009E00082E00E948C0981E00E948C0981E00E94D3
:1009F0008C098FEF9FEFAC81BD818D939C93A8856F
:100A0000B9850C91013010F00C940A0581E0A8859D
:100A1000B9858C93A885B9850C91AE81BF814C9125
:100A2000040FAA81BB810C93AA81BB818C91815058
:100A30008C93AA81BB810C91063018F011F00C94B4
:100A400023050C94270586E0AA81BB818C93A88599
:100A5000B9858C91A881B9818C93AA81BB814C9175
:100A6000A881B9810C91041718F011F00C94650558
:100A7000AC81BD814D915C91A881B981AD90BB24C1
:100A8000A3E4B1E0AA0CBB1CAA0DBB1D0D911C91E7
:100A90000417150710F00C945D05A881B981AD907D
:100AA000BB24A3E4B1E0AA0CBB1CAA0DBB1D8D9115
:100AB0009C91AC81BD818D939C93A881B9818C91CF
:100AC0008F5F8C9310F40C942D05AC81BD818D91BA
:100AD0009C91AA85BB858D939C9384E0481A80E005
:100AE000580A2696089581E00E948C0981E00E94B0
:100AF0008C0981E0A881B9818C93A881B9810C917E
:100B0000023018F011F00C947606A881B9810C918E
:100B1000013011F00C94A50580915801AA81BB8188
:100B20008C93A5E2B0E08C9181FBA1E1B1E08C91C6
:100B300080F98C93A5E2B0E08C9182FBAAE7B1E04A
:100B40008C9187F98C930C94C305A881B9810C9181
:100B5000023011F00C94C30580915901AA81BB8128
:100B60008C93A5E2B0E08C9183FBA1E1B1E08C9184
:100B700080F98C93A5E2B0E08C9184FBAAE7B1E008
:100B80008C9187F98C93AA81BB810C91003011F074
:100B90000C94D605709111017E7F709311017091B4
:100BA0007A017F7770937A010C943A06093C11F030
:100BB0000C94F905A1E1B1E08C9180FB882780F9C4
:100BC000809580FBA1E1B1E08C9180F98C937091CC
:100BD0007A017F7770937A01A1E1B1E08C9180FB7B
:100BE00016F00C94F7058091570180935A010C94EC
:100BF0003A06033D11F00C940906709111017160E1
:100C00007093110170917A017F7770937A010C943F
:100C10003A060A3C11F00C942C06709111017E7F6B
:100C200070931101AAE7B1E08C9187FB882780F9C6
:100C3000809580FBAAE7B1E08C9187F98C93AAE7B5
:100C4000B1E08C9187FB16F00C942A068091570135
:100C500080935A010C943A06043D11F00C943A0624
:100C6000709111017E7F7093110170917A0170680B
:100C700070937A01A881B9810C91013011F00C9424
:100C80005506A1E1B1E08C9180FBA5E2B0E08C912A
:100C900081F98C93AAE7B1E08C9187FBA5E2B0E0E3
:100CA0008C9182F98C930C946E06A881B9810C9179
:100CB000023011F00C946E06A1E1B1E08C9180FB42
:100CC000A5E2B0E08C9183F98C93AAE7B1E08C9116
:100CD00087FBA5E2B0E08C9184F98C93A881B9815F
:100CE0008C918F5F8C9310F40C947D0582E0481AF0
:100CF00080E0580A2496089529982A982B982C98D1
:100D000080E08093580180E08093590108953FBEB0
:100D100081E00E948C0982E00E948C0984E00E949C
:100D20008C0982E00E948C0981E00E948C0980E09D
:100D3000A885B9858C93EDE5F1E0D190E080FF24A2
:100D400000270E94270AAC81BD810E94590A0091A8
:100D50007C00007F026000937C000E94AE09AE819F
:100D6000BF818D939C9381E0A881B9818C93A881E8
:100D7000B9810C91063018F011F00C941E07E4EACA
:100D8000F8E10E946B0BEC81FD810E94030A0E9436
:100D9000010BEDE0F0E00E94C509AA81BB81DD9264
:100DA000EC92AA81BB814D915C91AE81BF810D9186
:100DB0001C910417150718F011F00C94E1060C941F
:100DC0000607E4EAF8E10E946B0BEC81FD810E94CA
:100DD000030A0E94100BEDE0F0E00E94C509AA8111
:100DE000BB81DD92EC92AA81BB814D915C91AE8179
:100DF000BF810D911C910417150710F00C94060784
:100E0000A881B9818C91A885B9858C93EFE5F1E033
:100E10000E94080AEC81FD810E94030A0E94100BC7
:100E2000EDE0F0E0AC81BD810E940F0CA881B9819A
:100E30008C918F5F8C9310F40C94B706A885B985BC
:100E40008C91AA85BB858C938AE0481A80E0580A69
:100E50002A9608953FBE709111017B7F7093110116
:100E6000709111017D7F70931101AA81BB814D9119
:100E70005C91A881B9810D911C91041715071CF094
:100E800011F00C9445070C944A077091110172609F
:100E900070931101AA81BB814D915C91AC81BD81A0
:100EA0000D911C91041715071CF011F00C945A07B2
:100EB0000C945F0770911101746070931101A1E1AE
:100EC000B1E08C9181FB16F00C947B07AC81BD8165
:100ED0004D915C91A881B9810D911C910417150762
:100EE0001CF011F00C9476070C947B0770911101A3
:100EF0007B7F70931101A1E1B1E08C9182FB16F030
:100F00000C949707A881B9814D915C91AC81BD810A
:100F10000D911C91041715071CF011F00C94920709
:100F20000C949707709111017D7F709311010895C2
:100F30000F921F922F923F924F925F927F92AF92A9
:100F4000BF920F931F932F933F934F935F936F9392
:100F50007F938F939F93AF93BF93CF93DF93EF9341
:100F6000FF938FB78F93A0E1B1E08C918F5F8C934B
:100F700000911001013010F40C94CD077091110113
:100F8000706870931101709111017F7B7093110152
:100F9000709111017F7D7093110100911001043057
:100FA00010F40C94E207709111017F777093110196
:100FB00070911101706470931101709111017F7D26
:100FC0007093110100911001073010F40C94F70791
:100FD000709111017F7770931101709111017F7BE6
:100FE0007093110170911101706270931101009161
:100FF0001001093010F40C94000880E08093100177
:101000003FB6F894A3E4B1E0BA93AA930E945708BC
:1010100022963FB6F894A1E5B1E0BA93AA930E9454
:10102000720822963FB6F894AAE5B1E0BA93AA9363
:101030000E94570822963FB6F894ABE5B1E0BA9308
:10104000AA930E947208229600915A01003011F072
:101050000C942C080E947305ABE5B1E00D911C9136
:10106000003050E0150711F00C9438080E947C06FF
:1010700073E87093B2008F918FBFFF91EF91DF9172
:10108000CF91BF91AF919F918F917F916F915F9120
:101090004F913F912F911F910F91BF90AF907F90F3
:1010A0005F904F903F902F901F900F9018953FBEEC
:1010B000A881B9810C91023010F40C946608A881C3
:1010C000B9818C9182508C930C947108A881B9815C
:1010D0000C91013011F00C94710880E0A881B98165
:1010E0008C9308953FBEA881B9810D911C91023067
:1010F00050E0150710F40C948B08A881B9810D916C
:101100001C9142E050E0041B150BA881B9810D939E
:101110001C930C949B08A881B9810D911C910130FE
:1011200050E0150711F00C949B0880E090E0A88136
:10113000B9818D939C9308953FBEF894A881B9819D
:101140000E94FB080E94010978940895A8E3B1E089
:101150003AE00E94C208AAE0B1E00E94F90B8AE0DE
:10116000A8E3B1E00E94A0098DE0A8E3B1E00E94ED
:10117000A009E8E3F1E0A8E3B1E00E94200C0895A3
:10118000ACE4B8E012D08D3039F03323D9F38D932D
:101190003A9563FE39D0F6CF63FC04C08DE034D0BD
:1011A0008AE032D088278C9308950F929F93AF9353
:1011B000BF937F9380910C018823E1F3F894809191
:1011C0000C018A9580930C0190910A01A0E0B1E096
:1011D000A90F0024B01D8C9193959A3009F499279A
:1011E00090930A0178947F91BF91AF919F910F9056
:1011F0000895ACE4B8E08D91882311F005D0FBCFC1
:1012000008958DE001D08AE00090C00005FEFCCF7B
:101210008093C600089588EE93E063D03197D9F7A4
:10122000089500FC05D0089530D005D001F8F9CF1D
:1012300037D03FD00895842F952FA62FB72FE8944D
:10124000452B462B472B11F468940895402F512FBE
:10125000622F732F0027112722273327F0E2440F34
:10126000551F661F771F001F111F221F331F081BEA
:10127000190B2A0B3B0B416028F4080F191F2A1F7A
:101280003B1F4E7FFA9559F708950024E89477FFA5
:1012900002C006D0689400F809D010F8012408951F
:1012A00012D04F5F5F4F6F4F7F4F0895E89437FF25
:1012B000089500951095209530950F5F1F4F2F4F83
:1012C0003F4F6894089540955095609570950895A6
:1012D0003197F1F70895689462F80895E89462F8F8
:1012E0000895EF93FF93EE27E82BE92B31F0E0EA26
:1012F000FFE03197F1F70197D1F7FF91EF91089552
:10130000481A590A0895481A8827580A08955A927F
:101310004A92480E591E08955A924A92480E8827BA
:10132000581E08955A924A92480E8827581E88E8F7
:10133000481688E0580608F40895689462F80895FD
:10134000FD019D91981709F091939923D1F7089584
:101350000E945E0B0D920020D9F7089570917A00DB
:10136000706470937A0000907A0006FCFCCF709154
:101370007A00706470937A0000907A0006FCFCCFCB
:10138000809178009091790008953DD09927112798
:101390008F2D880F80E8F82A802F881F08F41FEF10
:1013A00041F08F57082F07FD04C0003240F08FEF47
:1013B00001C08827982FD82EE82EF82E09C08FE17B
:1013C000801B082FF694E794D79497950A95D1F748
:1013D000112351F09095D094E094F09481E0980F0F
:1013E0008827D81EE81EF81E0F2DFE2CED2CD92EB6
:1013F0000895D094E094F09491E0D90E9927E91ED5
:10140000F91E10950895D190E190F1900191089501
:1014100021913191419151910895102F90E8FF0C45
:10142000001F0927990FF7941078652F90E8440F53
:10143000551F5927990F4795607800380895FF0C7C
:1014400090E89027110F9795F794092F0895102F82
:10145000BD2CDE2CEF2CF02E11234AF4B094D09446
:10146000E094F0949FEFB91AD90AE90AF90A0EE15B
:10147000FF2039F4FE2CED2CDB2CBB240850C2F7E6
:101480006CC032F00A95BB0CDD1CEE1CFF1CF9CFC2
:101490000E944B0AD4CFB7FE089590E8B91611F414
:1014A000D0FE08959FEFD91AE90AF90A09F40395C5
:1014B0000895DD92ED92FD920C930895502F2D2DFD
:1014C0003E2D4F2D612F08952DEC3CEC4CEC5DE34F
:1014D00066270FC098DFF2DFDD24EE2490E8F92EB6
:1014E0000FE307C095DF05C02227332740E251E410
:1014F0006627552351F1002381F18FDF71F1162703
:10150000005850580894050B18F407FD03C025C077
:1015100007FD23C0469537952795F694E794D79411
:1015200022D0FF202AF0DD0CEE1CFF1C015073F0CE
:101530009D2D969548F0DD203AF4EE202AF491E0B6
:10154000D90E9927E91EF91E7ACF07C09FE7092F08
:10155000F92A9FEFD92EE92E0895DD24EE24FF24E9
:101560000027112708959F929924AA24BB2488E17B
:10157000D216E306F40628F0D21AE30AF40A089415
:1015800001C08894991CAA1CBB1CDD0CEE1CFF1C1E
:101590008A9571F7D92CEA2CFB2C9F9008953DDF9A
:1015A000E1F25038D1F21627005850580894051F20
:1015B00012F418F4CBCF08F0D0CF0BD0FF202AF0D4
:1015C000BB0CDD1CEE1CFF1C3ACF0F5F0BF4BECF33
:1015D00036CF9F929924AA24BB24992788E1990C9D
:1015E000AA1CBB1CDD1CEE1CFF1C30F4920EA31EBB
:1015F000B41ED91EE91EF91E8A9589F79F90089599
:1016000007DF0BDF503829F090E869270CC00AF09B
:1016100045D015CF5FE322273327442701C0F8DEEA
:10162000FCDE5038B1F3003899F3902F951B8BF303
:1016300012F434D0FACF983118F0222733274427F8
:10164000983028F0232F342F44279850F9CF99232E
:1016500029F04695379527959A95D9F7912F962792
:1016600042F014D0B0F6F794E794D7940F5F8BF65E
:101670006DCF10D051F008F4BCDEFF2052F2DD0C2B
:10168000EE1CFF1C0150CBF761CF67CFD20EE31EDB
:10169000F41E0895D21AE30AF40A0895DF92EF9235
:1016A000FF920F931F93D22EE32EF42E052F162FA9
:1016B0006F915F914F913F912F910895C895319609
:1016C00000200895FBDFD02CF9DFE02CF7DFF02CB1
:1016D000F5DF002D0895F2DF202DF0DF302DEEDF55
:1016E000402DECDF502D089591E005C092E003C03D
:1016F00094E001C098E0E2DF0D929A95E1F7089539
:1017000091E0882321F08894991F8A95E9F7892F21
:1017100090950895BB270E94800B9C9198279C93DD
:101720003197F1F798279C9308950E946E09FF273F
:10173000AA27BB270E94800B08230180092201826F
:1017400000800822002619F41196D1F0F9CFAA27BB
:10175000BB2700800822002619F0119689F0F9CFE6
:10176000AA27BB27EF93FF93E0E2F0E00E9468090D
:10177000FF91EF9100800822002621F4119691F745
:101780000E946B098A2F9B2F08957F930F93AF932D
:10179000BF938F939F938FB78F93E89480910C01A1
:1017A0000AE0081B29F49091C6000E946B0914C03E
:1017B00000910B01A0E0B1E077279091C600A00F47
:1017C000B71F9C936894839580930C0103950A300E
:1017D00009F4002700930B019D3011F40E94A60824
:1017E0008F918FBF9F918F91BF91AF910F917F91FB
:1017F00018956FB7F894882793E08D939A95E9F739
:101800006FBF0895040F151F261F371F08958827DF
:101810008D93089581918D938823E1F7089594E045
:1018200081918D939A95E1F7089581918032E9F342
:10183000F2CFF0DF11978E918032E9F31196E7CF66
:10184000F4DFF8CF689401C0E894AF93BF938D9113
:1018500016F0919103C00E945E0B902D891718F02D
:1018600011F48823A1F7BF91AF910895689463F8AC
:1018700008950FEF1FEF88279927442755272D91AB
:101880003D9101960217130720F0022F132F482FC6
:10189000592F3197A1F708950000A04000000C4394
:1018A00000004842000020416869000068656C6CD7
:1018B0006F007265626F6F74000073746F7070698F
:0E18C0006E67206D6F746F7273006279650041
:00000001FF
