:100000000C94340018950000189500001895000015
:10001000189500001895000018950000189500002C
:10002000189500000C9466071895000018950000BC
:10003000189500001895000018950000189500000C
:100040000C947600189500000C94930B1895000002
:1000500018950000189500001895000018950000EC
:1000600018950000189500008FEF8DBFC4ECE4E6F2
:100070004E2E88E08EBFD8E0F8E05F2EA89584B7BA
:10008000082E877F84BF88E1992780936000909332
:100090006000EEEFF7E0A0E0B1E088278D933197A4
:1000A000E9F789E18093C40080E08093C50088E18E
:1000B0008093C100662474B7777F74BF8FE180930B
:1000C000600087E0809360007091C1007068709359
:1000D000C1000E94040C85B5816085BD70916E00E1
:1000E000716070936E0081E686BD2DC00F938F9373
:1000F0008FB78F93AF93BF939F93ADE0B1E08D9196
:100100009C9101969C938E9300278130900711F467
:10011000289A0FC0903041F0803D07E0900748F0EA
:1001200000270D930C9305C012969D91891708F036
:10013000289881E686BD9F91BF91AF918F918FBF27
:100140008F910F91189586E08093B10080E08093A5
:10015000B0007091700071607093700086E08093C1
:10016000B10087E880937A0080E480937C0039981E
:100170003A98209A219A229A239A249A259A389A70
:10018000319829982A982B982C982D98409881E09E
:100190008093440183E08093530182E380930F01B5
:1001A00080E08093580180E08093590178942D9AE3
:1001B00084EF91E00E943F092D9884EF91E00E9426
:1001C0003F092D9AE1E0F0E00E94D9082D980091B6
:1001D0007C00007F026000937C000E947C09ADE5FA
:1001E000B1E08D939C938EEB80930F0188EE93E0AA
:1001F0000E943F0900917C00007F026000937C0018
:100200000E947C09A7E1B1E08D939C93E7E1F1E0C6
:10021000D190E080FF2400270E94F509AFE5B1E00E
:100220000E94270AEDE5F1E0D190E080FF2400274D
:100230000E94F5090E942C0AEFE5F1E00E94D10925
:100240000E94CF0AEDE0F0E0AFE5B1E00E94DD0BE7
:1002500085E080931201E2E1F1E0D080EE24FF24FA
:1002600000270E94F5090E942C0AEFE5F1E00E94A8
:10027000D1090E94470AEDE0F0E0AFE5B1E00E944D
:10028000DD0B82E380930F01809160008860809392
:10029000600000915301003018F011F00C945201ED
:1002A0000C94DF01A5E4B1E0E6E0F0E00E94070C69
:1002B000A5E5B1E00D931C93A7E3B1E04C93A5E550
:1002C000B1E00D911C91063950E0150710F00C9427
:1002D0008C01A1E1B1E08C9183FB16F40C947B01BD
:1002E00089EC809358018AEC8093590182E08093D5
:1002F00057010C9484018AEC8093580189EC809317
:10030000590182E0809357018CE291E0ABE5B1E0C6
:100310008D939C930C94DC0189EC8093580189ECBB
:100320008093590181E08093570180E293E0ABE52F
:10033000B1E08D939C9383E0809312014091120170
:1003400000915301041718F011F00C94A9010C94BA
:10035000BD0170911101777F7093110180E080934E
:10036000580189EC8093590181E0809357018CE218
:1003700091E0ABE5B1E08D939C9383E08093120113
:100380004091120100915301041710F00C94DC010C
:100390007091110178607093110189EC809358017C
:1003A00080E08093590181E0809357018CE291E0D5
:1003B000ABE5B1E08D939C9380E080935301A8E37B
:1003C000B1E08C91803011F40C943602E8E3F1E056
:1003D000A3E6B1E00E94D80BA8E3B1E088278C9394
:1003E000A3E6B1E0E4E4F8E10E94F00B11F00C9414
:1003F0000B023FB6F894D201E8E4F8E10E947609D6
:1004000086E00E9460090E946A08229686E00E94A7
:1004100051090C943602EEE4F8E10E94F00B11F061
:100420000C9436023FB6F894D201E6E5F8E10E945A
:10043000760980E10E9460090E946A08229680E1A4
:100440000E9451090E94B8063FB6F894D201E6E630
:10045000F8E10E94760984E00E9460090E946A081F
:10046000229684E00E9451090C940000A1E5B1E0BD
:100470000D911C91003050E0150711F00C943E04D2
:100480003FB6F894A2E1B1E0BA93AA930E94C306E2
:10049000229600911201003018F011F00C945202D3
:1004A0000C943E0480911201809344013FB6F8946D
:1004B000A4E4B1E0AD90BB24A3E4B1E0AA0CBB1C62
:1004C000AA0DBB1DBA93AA930E945804229670915C
:1004D00011017B7F70931101A1E1B1E08C9184FB4C
:1004E00016F40C94970200914401063010F40C9419
:1004F000900270911101706170931101409154014B
:1005000000914401041710F40C948E0270911101B3
:1005100074607093110181E0809354010C949502F2
:10052000A4E4B1E08C918F5F8C930C94BB0200919A
:100530004401013018F011F00C94B60270911101D1
:100540007F7E709311014091540100914401041782
:1005500018F011F00C94B402709111017460709352
:10056000110186E0809354010C94BB02A4E4B1E035
:100570008C9181508C93A1E1B1E08C9182FB16F0BB
:100580000C94E50382E08093740181E0809375010F
:100590003FB6F894AEE6B1E0BA93AA9380917501A4
:1005A000D2018C9381E00E94600980917401D20194
:1005B0008C9381E00E9460090E942B05269682E0C0
:1005C0000E9451090091750140917401040FA5E743
:1005D000B1E00C933FB6F894A0E7B1E0BA93AA93C8
:1005E00080917501D2018C9381E00E946009809115
:1005F0007401D2018C9381E00E9460090E942B0556
:10060000269682E00E945109009175014091740183
:10061000040FA5E7B1E00C933FB6F894A2E7B1E070
:10062000BA93AA9380917501D2018C9381E00E94C4
:10063000600980917401D2018C9381E00E9460096D
:100640000E942B05269682E00E945109A2E7B1E0A4
:100650000D911C91003B54E0150710F00C943803E9
:1006600080E090E0A2E7B1E08D939C930C9444036A
:10067000A2E7B1E00D911C9140EB54E0041B150B77
:10068000A2E7B1E00D931C93AEE6B1E00D911C9191
:10069000003B54E0150710F00C94560380E090E006
:1006A000AEE6B1E08D939C930C946203AEE6B1E0AC
:1006B0000D911C9140EB54E0041B150BAEE6B1E02C
:1006C0000D931C93709111017D7F709311017091B6
:1006D00011017E7F70931101A0E7B1E04D915C9113
:1006E000AEE6B1E00D911C910417150718F011F05A
:1006F0000C947C030C9481037091110171607093D0
:100700001101A0E7B1E04D915C91A2E7B1E00D913C
:100710001C910417150718F011F00C9491030C9418
:10072000960370911101726070931101A1E1B1E023
:100730008C9180FB16F00C94B203A2E7B1E04D91CE
:100740005C91AEE6B1E00D911C910417150718F00D
:1007500011F00C94AD030C94B203709111017D7FE4
:1007600070931101A1E1B1E08C9181FB16F00C9422
:10077000CE03AEE6B1E04D915C91A2E7B1E00D9100
:100780001C910417150718F011F00C94C9030C9470
:10079000CE03709111017E7F7093110183E08093ED
:1007A0005301A1E1B1E08C9180FB16F00C94DB03C6
:1007B00081E080935301A1E1B1E08C9181FB16F0BF
:1007C0000C94E50386E080935301A3E1B1E0E4E3F8
:1007D000F8E10E94460BE3E1F1E00E94D609E8E36C
:1007E000F8E10E94300B0E94470AEDE0F0E0A3E13F
:1007F000B1E00E94DD0BE3E1F1E0A3E3B1E00E9490
:10080000DD0BE4E4F1E0D080EE24FF2400270E9419
:10081000F5090E942C0AE3E1F1E00E94D1090E944F
:100820009D0AEDE0F0E0A3E1B1E00E94DD0BE3E31F
:10083000F1E00E94D609E3E1F1E00E94D1090E94B3
:10084000CF0AEDE0F0E0A3E1B1E00E94DD0BECE3C4
:10085000F8E10E94390BE3E1F1E00E94D1090E9426
:10086000DE0AEDE0F0E00E949309AFE0B1E0DC9237
:1008700082E390E0A1E5B1E08D939C930091430168
:10088000003011F00C94490480E283B986E0809333
:1008900043019FB7F8948091600088618093600065
:1008A000877E809360009FBF0C944401F894FFCF33
:1008B0003FBE82E00E945A0980E090E0A881B981A1
:1008C0008D939C9380E0E4E1F0E0A8E20E94580B55
:1008D000E6E281E00FEF0E94630BA881B9818D935E
:1008E0009C93A881B9810D911C91093150E01507A5
:1008F00018F011F00C947E040C946204A881B98164
:100900008D919C91AA81BB818D939C9382E0481A22
:1009100080E0580A229608953FBE84E00E945A095A
:1009200081E00E945A0981E00E945A0981E00E94F8
:100930005A0900E010E020E030E0AE81BF810D9365
:100940001D932D933C9380E0AC81BD818C93AA854F
:10095000BB850C91013010F00C94B20481E0AA85A3
:10096000BB858C93AA85BB850C91A885B9854C91D4
:10097000040FAA81BB810C93AA81BB818C91815009
:100980008C93AA81BB810C91063018F011F00C9465
:10099000CB040C94CF0486E0AA81BB818C93AA85FA
:1009A000BB858C91A881B9818C93AA81BB814C9124
:1009B000A881B9810C91041718F011F00C94090565
:1009C000AE81BF810D911D912D913C91A881B9817E
:1009D000AD90BB24A3E4B1E0AA0CBB1CAA0DBB1DC7
:1009E0004D915C91662777270E94D00BAE81BF8125
:1009F0000D931D932D933D93AC81BD818C918F5FA1
:100A00008C93A881B9818C918F5F8C9310F40C9496
:100A1000D504AE81BF810D911D912D913C91AC818A
:100A2000BD814C915527662777270E94E208AE8149
:100A3000BF814D935D936D937D93AE81BF818D9109
:100A40009C91AC85BD858D939C9387E0481A80E08E
:100A5000580A289608953FBE82E00E945A0981E014
:100A60000E945A0981E00E945A098FEF9FEFAC81E2
:100A7000BD818D939C93A885B9850C91013010F0B0
:100A80000C94460581E0A885B9858C93A885B98525
:100A90000C91AE81BF814C91040FAA81BB810C9354
:100AA000AA81BB818C9181508C93AA81BB810C91CE
:100AB000063018F011F00C945F050C94630586E085
:100AC000AA81BB818C93A885B9858C91A881B981B5
:100AD0008C93AA81BB814C91A881B9810C91041798
:100AE00018F011F00C94A105AC81BD814D915C9181
:100AF000A881B981AD90BB24A3E4B1E0AA0CBB1CD2
:100B0000AA0DBB1D0D911C910417150710F00C9434
:100B10009905A881B981AD90BB24A3E4B1E0AA0CEA
:100B2000BB1CAA0DBB1D8D919C91AC81BD818D9389
:100B30009C93A881B9818C918F5F8C9310F40C9455
:100B40006905AC81BD818D919C91AA85BB858D93F2
:100B50009C9384E0481A80E0580A2696089581E024
:100B60000E945A0981E00E945A0981E0A881B98156
:100B70008C93A881B9810C91023018F011F00C947B
:100B8000B206A881B9810C91013011F00C94E105F5
:100B900080915801AA81BB818C93A5E2B0E08C9131
:100BA00081FBA6E7B1E08C9187F98C93A5E2B0E0D8
:100BB0008C9182FBA6E7B1E08C9186F98C930C9422
:100BC000FF05A881B9810C91023011F00C94FF054A
:100BD00080915901AA81BB818C93A5E2B0E08C91F0
:100BE00083FBA6E7B1E08C9187F98C93A5E2B0E096
:100BF0008C9184FBA6E7B1E08C9186F98C93AA8155
:100C0000BB810C91003011F00C94120670917601AA
:100C10007F7770937601709176017F7B7093760178
:100C20000C947606093C11F00C943506A6E7B1E069
:100C30008C9187FB882780F9809580FBA6E7B1E03F
:100C40008C9187F98C93709176017F7B70937601FC
:100C5000A6E7B1E08C9187FB16F00C9433068091E7
:100C6000570180935A010C947606033D11F00C94C1
:100C700045067091760170687093760170917601E7
:100C80007F7B709376010C9476060A3C11F00C94ED
:100C90006806709176017F7770937601A6E7B1E0E0
:100CA0008C9186FB882780F9809580FBA6E7B1E0D0
:100CB0008C9186F98C93A6E7B1E08C9186FB16F0B7
:100CC0000C9466068091570180935A010C94760625
:100CD000043D11F00C947606709176017F77709345
:100CE000760170917601706470937601A881B98164
:100CF0000C91013011F00C949106A6E7B1E08C91B3
:100D000087FBA5E2B0E08C9181F98C93A6E7B1E076
:100D10008C9186FBA5E2B0E08C9182F98C930C94C7
:100D2000AA06A881B9810C91023011F00C94AA0690
:100D3000A6E7B1E08C9187FBA5E2B0E08C9183F946
:100D40008C93A6E7B1E08C9186FBA5E2B0E08C9194
:100D500084F98C93A881B9818C918F5F8C9310F466
:100D60000C94B90582E0481A80E0580A2496089548
:100D700029982A982B982C9880E08093580180E03D
:100D80008093590108953FBE81E00E945A0982E094
:100D90000E945A0984E00E945A0982E00E945A097E
:100DA00081E00E945A0980E0A885B9858C93EDE521
:100DB000F1E0D190E080FF2400270E94F509AC818A
:100DC000BD810E94270A00917C00007F0260009391
:100DD0007C000E947C09AE81BF818D939C9381E051
:100DE000A881B9818C93A881B9810C91063018F043
:100DF00011F00C945A07E0E4F8E10E94390BEC8101
:100E0000FD810E94D1090E94CF0AEDE0F0E00E942E
:100E10009309AA81BB81DD92EC92AA81BB814D919D
:100E20005C91AE81BF810D911C910417150718F0DC
:100E300011F00C941D070C944207E0E4F8E10E94C5
:100E4000390BEC81FD810E94D1090E94DE0AEDE0A0
:100E5000F0E00E949309AA81BB81DD92EC92AA8105
:100E6000BB814D915C91AE81BF810D911C910417A6
:100E7000150710F00C944207A881B9818C91A885C0
:100E8000B9858C93EFE5F1E00E94D609EC81FD81F4
:100E90000E94D1090E94DE0AEDE0F0E0AC81BD8144
:100EA0000E94DD0BA881B9818C918F5F8C9310F427
:100EB0000C94F306A885B9858C91AA85BB858C9383
:100EC0008AE0481A80E0580A2A9608950F921F92E5
:100ED0002F923F924F925F927F92AF92BF920F9369
:100EE0001F932F933F934F935F936F937F938F93B2
:100EF0009F93AF93BF93CF93DF93EF93FF938FB7FE
:100F00008F93A0E1B1E08C918F5F8C9300911001E1
:100F1000013010F40C949B0770911101706870936C
:100F20001101709111017F7B70931101709111017A
:100F30007F7D7093110100911001043010F40C9426
:100F4000B007709111017F777093110170911101B9
:100F5000706470931101709111017F7D7093110184
:100F600000911001073010F40C94C5077091110125
:100F70007F7770931101709111017F7B7093110144
:100F8000709111017062709311010091100109308C
:100F900010F40C94CE0780E0809310013FB6F894D3
:100FA000A3E4B1E0BA93AA930E94250822963FB623
:100FB000F894A1E5B1E0BA93AA930E944008229662
:100FC0003FB6F894AAE5B1E0BA93AA930E94250827
:100FD00022963FB6F894ABE5B1E0BA93AA930E948B
:100FE0004008229600915A01003011F00C94FA0743
:100FF0000E94AF05ABE5B1E00D911C91003050E0CF
:10100000150711F00C9406080E94B80673E8709357
:10101000B2008F918FBFFF91EF91DF91CF91BF9180
:10102000AF919F918F917F916F915F914F913F9180
:101030002F911F910F91BF90AF907F905F904F9035
:101040003F902F901F900F9018953FBEA881B981B7
:101050000C91023010F40C943408A881B9818C9161
:1010600082508C930C943F08A881B9810C91013077
:1010700011F00C943F0880E0A881B9818C93089509
:101080003FBEA881B9810D911C91023050E0150737
:1010900010F40C945908A881B9810D911C9142E07B
:1010A00050E0041B150BA881B9810D931C930C947F
:1010B0006908A881B9810D911C91013050E0150794
:1010C00011F00C94690880E090E0A881B9818D93BB
:1010D0009C9308953FBEF894A881B9810E94C908E5
:1010E0000E94CF0878940895A8E3B1E03AE00E9406
:1010F0009008AAE0B1E00E94C70B8AE0A8E3B1E043
:101100000E946E098DE0A8E3B1E00E946E09E8E359
:10111000F1E0A8E3B1E00E94EE0B0895ACE4B8E082
:1011200012D08D3039F03323D9F38D933A9563FE85
:1011300039D0F6CF63FC04C08DE034D08AE032D0E1
:1011400088278C9308950F929F93AF93BF937F93BB
:1011500080910C018823E1F3F89480910C018A9529
:1011600080930C0190910A01A0E0B1E0A90F002446
:10117000B01D8C9193959A3009F4992790930A01A8
:1011800078947F91BF91AF919F910F900895ACE4B7
:10119000B8E08D91882311F005D0FBCF08958DE044
:1011A00001D08AE00090C00005FEFCCF8093C6000D
:1011B000089588EE93E063D03197D9F7089500FC45
:1011C00005D0089530D005D001F8F9CF37D03FD001
:1011D0000895842F952FA62FB72FE894452B462BE3
:1011E000472B11F468940895402F512F622F732FCD
:1011F0000027112722273327F0E2440F551F661FCF
:10120000771F001F111F221F331F081B190B2A0BEA
:101210003B0B416028F4080F191F2A1F3B1F4E7F0C
:10122000FA9559F708950024E89477FF02C006D094
:10123000689400F809D010F80124089512D04F5F87
:101240005F4F6F4F7F4F0895E89437FF08950095E3
:101250001095209530950F5F1F4F2F4F3F4F68948B
:101260000895409550956095709508953197F1F7E0
:101270000895689462F80895E89462F80895EF93E9
:10128000FF93EE27E82BE92B31F0E0EAFFE03197FE
:10129000F1F70197D1F7FF91EF910895481A590A94
:1012A0000895481A8827580A08955A924A92480E73
:1012B000591E08955A924A92480E8827581E08953A
:1012C0005A924A92480E8827581E88E8481688E0A5
:1012D000580608F40895689462F80895FD019D91F8
:1012E000981709F091939923D1F708950E942C0B38
:1012F0000D920020D9F7089570917A007064709370
:101300007A0000907A0006FCFCCF70917A0070643D
:1013100070937A0000907A0006FCFCCF80917800F0
:101320009091790008953DD0992711278F2D880F2E
:1013300080E8F82A802F881F08F41FEF41F08F57AC
:10134000082F07FD04C0003240F08FEF01C088274E
:10135000982FD82EE82EF82E09C08FE1801B082F79
:10136000F694E794D79497950A95D1F7112351F005
:101370009095D094E094F09481E0980F8827D81E3F
:10138000E81EF81E0F2DFE2CED2CD92E0895D094BA
:10139000E094F09491E0D90E9927E91EF91E10957A
:1013A0000895D190E190F1900191089521913191AA
:1013B000419151910895102F90E8FF0C001F0927CB
:1013C000990FF7941078652F90E8440F551F59270F
:1013D000990F4795607800380895FF0C90E89027A2
:1013E000110F9795F794092F0895102FBD2CDE2C1F
:1013F000EF2CF02E11234AF4B094D094E094F094A2
:101400009FEFB91AD90AE90AF90A0EE1FF2039F467
:10141000FE2CED2CDB2CBB240850C2F76CC032F044
:101420000A95BB0CDD1CEE1CFF1CF9CF0E94190AAB
:10143000D4CFB7FE089590E8B91611F4D0FE089500
:101440009FEFD91AE90AF90A09F403950895DD9284
:10145000ED92FD920C930895502F2D2D3E2D4F2D82
:10146000612F08952DEC3CEC4CEC5DE366270FC03A
:1014700098DFF2DFDD24EE2490E8F92E0FE307C0B9
:1014800095DF05C02227332740E251E46627552324
:1014900051F1002381F18FDF71F116270058505868
:1014A0000894050B18F407FD03C025C007FD23C0F1
:1014B000469537952795F694E794D79422D0FF2048
:1014C0002AF0DD0CEE1CFF1C015073F09D2D96954B
:1014D00048F0DD203AF4EE202AF491E0D90E992765
:1014E000E91EF91E7ACF07C09FE7092FF92A9FEF5F
:1014F000D92EE92E0895DD24EE24FF24002711279C
:1015000008959F929924AA24BB2488E1D216E30669
:10151000F40628F0D21AE30AF40A089401C0889469
:10152000991CAA1CBB1CDD0CEE1CFF1C8A9571F7D4
:10153000D92CEA2CFB2C9F9008953DDFE1F2503826
:10154000D1F21627005850580894051F12F418F4C9
:10155000CBCF08F0D0CF0BD0FF202AF0BB0CDD1C86
:10156000EE1CFF1C3ACF0F5F0BF4BECF36CF9F921D
:101570009924AA24BB24992788E1990CAA1CBB1C96
:10158000DD1CEE1CFF1C30F4920EA31EB41ED91EEF
:10159000E91EF91E8A9589F79F90089507DF0BDFF2
:1015A000503829F090E869270CC00AF045D015CFD3
:1015B0005FE322273327442701C0F8DEFCDE5038E2
:1015C000B1F3003899F3902F951B8BF312F434D0BC
:1015D000FACF983118F0222733274427983028F083
:1015E000232F342F44279850F9CF992329F046957B
:1015F000379527959A95D9F7912F962742F014D0D1
:10160000B0F6F794E794D7940F5F8BF66DCF10D0B8
:1016100051F008F4BCDEFF2052F2DD0CEE1CFF1C82
:101620000150CBF761CF67CFD20EE31EF41E0895B1
:10163000D21AE30AF40A0895DF92EF92FF920F9311
:101640001F93D22EE32EF42E052F162F6F915F914C
:101650004F913F912F910895C8953196002008959C
:10166000FBDFD02CF9DFE02CF7DFF02CF5DF002DCD
:101670000895F2DF202DF0DF302DEEDF402DECDF7E
:10168000502D089591E005C092E003C094E001C0A0
:1016900098E0E2DF0D929A95E1F7089591E08823B2
:1016A00021F08894991F8A95E9F7892F90950895DC
:1016B000BB270E944E0B9C9198279C933197F1F782
:1016C00098279C9308950E943C09FF27AA27BB27CF
:1016D0000E944E0B0823018009220182008008220B
:1016E000002619F41196D1F0F9CFAA27BB27008064
:1016F0000822002619F0119689F0F9CFAA27BB27F6
:10170000EF93FF93E0E2F0E00E943609FF91EF9142
:1017100000800822002621F4119691F70E943909D1
:101720008A2F9B2F08957F930F93AF93BF938F932F
:101730009F938FB78F93E89480910C010AE0081B68
:1017400029F49091C6000E94390914C000910B0140
:10175000A0E0B1E077279091C600A00FB71F9C933F
:101760006894839580930C0103950A3009F400274F
:1017700000930B019D3011F40E9474088F918FBF6C
:101780009F918F91BF91AF910F917F9118956FB7F6
:10179000F894882793E08D939A95E9F76FBF0895A1
:1017A000040F151F261F371F089588278D9308954E
:1017B00081918D938823E1F7089594E081918D9331
:1017C0009A95E1F7089581918032E9F3F2CFF0DF45
:1017D00011978E918032E9F31196E7CFF4DFF8CFBD
:1017E000689401C0E894AF93BF938D9116F09191E6
:1017F00003C00E942C0B902D891718F011F4882338
:10180000A1F7BF91AF910895689463F808950FEF21
:101810001FEF88279927442755272D913D91019641
:101820000217130720F0022F132F482F592F31973B
:10183000A1F708950000A04000000C4300004842BA
:10184000000020416869000068656C6C6F0072657B
:10185000626F6F74000073746F7070696E67206DD3
:0A1860006F746F7273006279650007
:00000001FF
