:100000000C94340018950000189500001895000015
:10001000189500001895000018950000189500002C
:10002000189500000C9476061895000018950000AD
:10003000189500001895000018950000189500000C
:100040000C947600189500000C94870A189500000F
:1000500018950000189500001895000018950000EC
:1000600018950000189500008FEF8DBFC4ECE4E6F2
:100070004E2E88E08EBFD8E0F8E05F2EA89584B7BA
:10008000082E877F84BF88E1992780936000909332
:100090006000EEEFF7E0A0E0B1E088278D933197A4
:1000A000E9F789E18093C40080E08093C50088E18E
:1000B0008093C100662474B7777F74BF8FE180930B
:1000C000600087E0809360007091C1007068709359
:1000D000C1000E94F80A85B5816085BD70916E00EF
:1000E000716070936E0081E686BD2DC00F938F9373
:1000F0008FB78F93AF93BF939F93ADE0B1E08D9196
:100100009C9101969C938E9300278130900711F467
:10011000289A0FC0903041F0803D07E0900748F0EA
:1001200000270D930C9305C012969D91891708F036
:10013000289881E686BD9F91BF91AF918F918FBF27
:100140008F910F91189586E08093B10080E08093A5
:10015000B0007091700071607093700086E08093C1
:10016000B10039983A98209A219A229A239A249A8F
:10017000259A389A319829982A982B982C982D9856
:10018000409881E08093420183E08093510182E3B3
:1001900080930F0180E08093560180E080935701A7
:1001A00078942D9A84EF91E00E944F082D9884EF67
:1001B00091E00E944F082D9AE1E0F0E00E94E907EB
:1001C0002D9880916000886080936000A1E1B1E08B
:1001D0008C9187FB16F00C94850100915101003041
:1001E00018F011F00C94F6000C948301A3E4B1E034
:1001F000E6E0F0E00E94FB0AA3E5B1E00D931C935A
:10020000A5E3B1E04C93A3E5B1E00D911C91063953
:1002100050E0150710F00C943001A1E1B1E08C9191
:1002200083FB16F40C941F0189EC809356018AEC31
:100230008093570182E0809355010C9428018AEC49
:100240008093560189EC8093570182E08093550199
:100250008CE291E0A9E5B1E08D939C930C94800130
:1002600089EC8093560189EC8093570181E080935B
:10027000550180E293E0A9E5B1E08D939C9383E082
:10028000809312014091120100915101041718F05E
:1002900011F00C944D010C94610170911101777F64
:1002A0007093110180E08093560189EC809357018F
:1002B00081E0809355018CE291E0A9E5B1E08D9356
:1002C0009C9383E0809312014091120100915101AF
:1002D000041710F00C9480017091110178607093F4
:1002E000110189EC8093560180E08093570181E0F1
:1002F000809355018CE291E0A9E5B1E08D939C9348
:1003000080E0809351010C94EF03A1E1B1E08C9166
:1003100086FB16F00C94E501A6E3B1E08C918030E9
:1003200011F40C94E301E6E3F1E0ABE5B1E00E94E7
:10033000CC0AA6E3B1E088278C93ABE5B1E0E8E214
:10034000F6E10E94E40A11F00C94B8013FB6F8946B
:10035000D201ECE2F6E10E94860886E00E94700875
:100360000E947A07229686E00E9461080C94E301BD
:10037000E2E3F6E10E94E40A11F00C94E3013FB6D7
:10038000F894D201EAE3F6E10E94860880E10E9437
:1003900070080E947A07229680E10E9461080E94FC
:1003A0006B063FB6F894D201EAE4F6E10E948608B3
:1003B00084E00E9470080E947A07229684E00E94DE
:1003C00061080C9400000C94EF03A1E1B1E08C9162
:1003D00085FB16F00C94EF03AFE4B1E00D911C9196
:1003E000003050E0150781E009F080E08F93A9E527
:1003F000B1E00D911C91003050E0150781E009F04B
:1004000080E09F918923882311F40C94EF033FB679
:10041000F894A2E4B1E0AD90BB24A1E4B1E0AA0C51
:10042000BB1CAA0DBB1DBA93AA930E940904229675
:10043000709111017B7F70931101A1E1B1E08C916A
:1004400084FB16F40C94480200914201063010F42B
:100450000C944102709111017061709311014091EF
:10046000520100914201041710F40C943F02709164
:10047000110174607093110181E0809352010C941A
:100480004602A2E4B1E08C918F5F8C930C946C02D5
:1004900000914201013018F011F00C946702709144
:1004A00011017F7E70931101409152010091420130
:1004B000041718F011F00C9465027091110174602A
:1004C0007093110186E0809352010C946C02A2E4B7
:1004D000B1E08C9181508C93A1E1B1E08C9182FBD1
:1004E00016F00C94960382E080936C0181E0809377
:1004F0006D013FB6F894A6E6B1E0BA93AA93809155
:100500006D01D2018C9381E00E94700880916C0192
:10051000D2018C9381E00E9470080E94DE0426962E
:1005200082E00E94610800916D0140916C01040F0E
:10053000ADE6B1E00C933FB6F894A8E6B1E0BA930B
:10054000AA9380916D01D2018C9381E00E94700882
:1005500080916C01D2018C9381E00E9470080E940E
:10056000DE04269682E00E94610800916D014091B0
:100570006C01040FADE6B1E00C933FB6F894AAE627
:10058000B1E0BA93AA9380916D01D2018C9381E07E
:100590000E94700880916C01D2018C9381E00E94CE
:1005A00070080E94DE04269682E00E946108AAE696
:1005B000B1E00D911C91003B54E0150710F00C9434
:1005C000E90280E090E0AAE6B1E08D939C930C9460
:1005D000F502AAE6B1E00D911C9140EB54E0041B3A
:1005E000150BAAE6B1E00D931C93A6E6B1E00D91C0
:1005F0001C91003B54E0150710F00C94070380E0B9
:1006000090E0A6E6B1E08D939C930C941303A6E6CC
:10061000B1E00D911C9140EB54E0041B150BA6E6D4
:10062000B1E00D931C93709111017D7F70931101C6
:10063000709111017E7F70931101A8E6B1E04D9198
:100640005C91A6E6B1E00D911C910417150718F016
:1006500011F00C942D030C94320370911101716010
:1006600070931101A8E6B1E04D915C91AAE6B1E06A
:100670000D911C910417150718F011F00C9442030A
:100680000C94470370911101726070931101A1E104
:10069000B1E08C9180FB16F00C946303AAE6B1E004
:1006A0004D915C91A6E6B1E00D911C9104171507E0
:1006B00018F011F00C945E030C9463037091110117
:1006C0007D7F70931101A1E1B1E08C9181FB16F067
:1006D0000C947F03A6E6B1E04D915C91AAE6B1E0EF
:1006E0000D911C910417150718F011F00C947A0362
:1006F0000C947F03709111017E7F7093110183E050
:1007000080935101A1E1B1E08C9180FB16F00C9433
:100710008C0381E080935101A1E1B1E08C9181FBD8
:1007200016F00C94960386E080935101A3E1B1E0AA
:10073000ECE1F6E10E943A0AE3E1F1E00E94CF0821
:10074000E0E2F6E10E94240A0E943B09EDE0F0E0BD
:10075000A3E1B1E00E94D10AE3E1F1E0A1E3B1E05D
:100760000E94D10AE2E4F1E0D080EE24FF240027C9
:100770000E94EE080E942009E3E1F1E00E94CA080D
:100780000E949109EDE0F0E0A3E1B1E00E94D10AFE
:10079000E1E3F1E00E94CF08E3E1F1E00E94CA0842
:1007A0000E94C309EDE0F0E0A3E1B1E00E94D10AAC
:1007B000E4E2F6E10E942D0AE3E1F1E00E94CA08BA
:1007C0000E94D209EDE0F0E00E948C08AFE0B1E0B9
:1007D000DC9286E990E0AFE4B1E08D939C930091C8
:1007E0004101003011F00C94FA0380E283B986E0F5
:1007F000809341019FB7F894809160008861809355
:100800006000877E809360009FBF0C94E100F894A5
:10081000FFCF3FBE82E00E946A0880E090E0A8819E
:10082000B9818D939C93F89480E0E4E1F0E0A8E234
:100830000E944C0AE6E281E00FEF0E94570AA8816D
:10084000B9818D939C93A881B9810D911C91093137
:1008500050E0150718F011F00C9430040C941404B7
:100860007894A881B9818D919C91AA81BB818D9347
:100870009C9382E0481A80E0580A229608953FBE71
:1008800084E00E946A0881E00E946A0881E00E9478
:100890006A0881E00E946A0800E010E020E030E091
:1008A000AE81BF810D931D932D933C9380E0AC816D
:1008B000BD818C93AA85BB850C91013010F00C94FE
:1008C000650481E0AA85BB858C93AA85BB850C91C4
:1008D000A885B9854C91040FAA81BB810C93AA818C
:1008E000BB818C9181508C93AA81BB810C91063085
:1008F00018F011F00C947E040C94820486E0AA8116
:10090000BB818C93AA85BB858C91A881B9818C937E
:10091000AA81BB814C91A881B9810C91041718F070
:1009200011F00C94BC04AE81BF810D911D912D91ED
:100930003C91A881B981AD90BB24A1E4B1E0AA0C9F
:10094000BB1CAA0DBB1D4D915C91662777270E94A9
:10095000C40AAE81BF810D931D932D933D93AC814D
:10096000BD818C918F5F8C93A881B9818C918F5FB1
:100970008C9310F40C948804AE81BF810D911D916D
:100980002D913C91AC81BD814C91552766277727ED
:100990000E94F207AE81BF814D935D936D937D936D
:1009A000AE81BF818D919C91AC85BD858D939C93CB
:1009B00087E0481A80E0580A289608953FBE82E0F2
:1009C0000E946A0881E00E946A0881E00E946A0829
:1009D0008FEF9FEFAC81BD818D939C93A885B985E6
:1009E0000C91013010F00C94F90481E0A885B985D0
:1009F0008C93A885B9850C91AE81BF814C91040F71
:100A0000AA81BB810C93AA81BB818C9181508C936C
:100A1000AA81BB810C91063018F011F00C941205DC
:100A20000C94160586E0AA81BB818C93A885B985B4
:100A30008C91A881B9818C93AA81BB814C91A881AA
:100A4000B9810C91041718F011F00C945405AC8185
:100A5000BD814D915C91A881B981AD90BB24A1E489
:100A6000B1E0AA0CBB1CAA0DBB1D0D911C91041773
:100A7000150710F00C944C05A881B981AD90BB24EA
:100A8000A1E4B1E0AA0CBB1CAA0DBB1D8D919C91E9
:100A9000AC81BD818D939C93A881B9818C918F5F2E
:100AA0008C9310F40C941C05AC81BD818D919C91AC
:100AB000AA85BB858D939C9384E0481A80E0580AF0
:100AC0002696089581E00E946A0881E00E946A08E3
:100AD00081E0A881B9818C93A881B9810C91023001
:100AE00018F011F00C946506A881B9810C910130C1
:100AF00011F00C94940580915601AA81BB818C93CE
:100B0000A5E2B0E08C9181FBAEE6B1E08C9187F973
:100B10008C93A5E2B0E08C9182FBAEE6B1E08C91C3
:100B200086F98C930C94B205A881B9810C9102309E
:100B300011F00C94B20580915701AA81BB818C936E
:100B4000A5E2B0E08C9183FBAEE6B1E08C9187F931
:100B50008C93A5E2B0E08C9184FBAEE6B1E08C9181
:100B600086F98C93AA81BB810C91003011F00C9412
:100B7000C50570916E017F7770936E0170916E0163
:100B80007F7B70936E010C942906093C11F00C9444
:100B9000E805AEE6B1E08C9187FB882780F9809567
:100BA00080FBAEE6B1E08C9187F98C9370916E0179
:100BB0007F7B70936E01AEE6B1E08C9187FB16F0FF
:100BC0000C94E60580915501809358010C942906F8
:100BD000033D11F00C94F80570916E0170687093EC
:100BE0006E0170916E017F7B70936E010C942906EB
:100BF0000A3C11F00C941B0670916E017F77709384
:100C00006E01AEE6B1E08C9186FB882780F9809575
:100C100080FBAEE6B1E08C9186F98C93AEE6B1E054
:100C20008C9186FB16F00C941906809155018093E7
:100C300058010C942906043D11F00C94290670917A
:100C40006E017F7770936E0170916E017064709386
:100C50006E01A881B9810C91013011F00C94440609
:100C6000AEE6B1E08C9187FBA5E2B0E08C9181F912
:100C70008C93AEE6B1E08C9186FBA5E2B0E08C915E
:100C800082F98C930C945D06A881B9810C91023095
:100C900011F00C945D06AEE6B1E08C9187FBA5E205
:100CA000B0E08C9183F98C93AEE6B1E08C9186FB39
:100CB000A5E2B0E08C9184F98C93A881B9818C91E4
:100CC0008F5F8C9310F40C946C0582E0481A80E0DE
:100CD000580A2496089529982A982B982C9880E0F1
:100CE0008093560180E08093570108950F921F92E0
:100CF0002F923F924F925F927F92AF92BF920F934B
:100D00001F932F933F934F935F936F937F938F9393
:100D10009F93AF93BF93CF93DF93EF93FF938FB7DF
:100D20008F93A0E1B1E08C918F5F8C9300911001C3
:100D3000013010F40C94AB0670911101706870933F
:100D40001101709111017F7B70931101709111015C
:100D50007F7D7093110100911001043010F40C9408
:100D6000C006709111017F7770931101709111018C
:100D7000706470931101709111017F7D7093110166
:100D800000911001073010F40C94D50670911101F8
:100D90007F7770931101709111017F7B7093110126
:100DA000709111017062709311010091100109306E
:100DB00010F40C94DE0680E0809310013FB6F894A6
:100DC000A1E4B1E0BA93AA930E94350722963FB6F8
:100DD000F894AFE4B1E0BA93AA930E945007229628
:100DE0003FB6F894A8E5B1E0BA93AA930E943507FC
:100DF00022963FB6F894A9E5B1E0BA93AA930E946F
:100E00005007229600915801003011F00C940A0707
:100E10000E946205A9E5B1E00D911C91003050E0FF
:100E2000150711F00C9416070E946B0673E8709377
:100E3000B2008F918FBFFF91EF91DF91CF91BF9162
:100E4000AF919F918F917F916F915F914F913F9162
:100E50002F911F910F91BF90AF907F905F904F9017
:100E60003F902F901F900F9018953FBEA881B98199
:100E70000C91023010F40C944407A881B9818C9134
:100E800082508C930C944F07A881B9810C9101304A
:100E900011F00C944F0780E0A881B9818C930895DC
:100EA0003FBEA881B9810D911C91023050E0150719
:100EB00010F40C946907A881B9810D911C9142E04E
:100EC00050E0041B150BA881B9810D931C930C9461
:100ED0007907A881B9810D911C91013050E0150767
:100EE00011F00C94790780E090E0A881B9818D938E
:100EF0009C9308953FBEF894A881B9810E94D907B8
:100F00000E94DF0778940895A6E3B1E03AE00E94DA
:100F1000A007AAE0B1E00E94BB0A8AE0A6E3B1E024
:100F20000E947E088DE0A6E3B1E00E947E08E6E321
:100F3000F1E0A6E3B1E00E94E20A0895ACE4B8E073
:100F400012D08D3039F03323D9F38D933A9563FE67
:100F500039D0F6CF63FC04C08DE034D08AE032D0C3
:100F600088278C9308950F929F93AF93BF937F939D
:100F700080910C018823E1F3F89480910C018A950B
:100F800080930C0190910A01A0E0B1E0A90F002428
:100F9000B01D8C9193959A3009F4992790930A018A
:100FA00078947F91BF91AF919F910F900895ACE499
:100FB000B8E08D91882311F005D0FBCF08958DE026
:100FC00001D08AE00090C00005FEFCCF8093C600EF
:100FD000089588EE93E063D03197D9F7089500FC27
:100FE00005D0089530D005D001F8F9CF37D03FD0E3
:100FF0000895842F952FA62FB72FE894452B462BC5
:10100000472B11F468940895402F512F622F732FAE
:101010000027112722273327F0E2440F551F661FB0
:10102000771F001F111F221F331F081B190B2A0BCC
:101030003B0B416028F4080F191F2A1F3B1F4E7FEE
:10104000FA9559F708950024E89477FF02C006D076
:10105000689400F809D010F80124089512D04F5F69
:101060005F4F6F4F7F4F0895E89437FF08950095C5
:101070001095209530950F5F1F4F2F4F3F4F68946D
:101080000895409550956095709508953197F1F7C2
:101090000895689462F80895E89462F80895EF93CB
:1010A000FF93EE27E82BE92B31F0E0EAFFE03197E0
:1010B000F1F70197D1F7FF91EF910895481A590A76
:1010C0000895481A8827580A08955A924A92480E55
:1010D000591E08955A924A92480E8827581E08951C
:1010E0005A924A92480E8827581E88E8481688E087
:1010F000580608F40895689462F80895FD019D91DA
:10110000981709F091939923D1F708950E94200A26
:101110000D920020D9F708953DD0992711278F2DE2
:10112000880F80E8F82A802F881F08F41FEF41F00D
:101130008F57082F07FD04C0003240F08FEF01C029
:101140008827982FD82EE82EF82E09C08FE1801B13
:10115000082FF694E794D79497950A95D1F7112321
:1011600051F09095D094E094F09481E0980F882706
:10117000D81EE81EF81E0F2DFE2CED2CD92E08953A
:10118000D094E094F09491E0D90E9927E91EF91ECD
:1011900010950895D190E190F190019108952191D9
:1011A0003191419151910895102F90E8FF0C001F4B
:1011B0000927990FF7941078652F90E8440F551F71
:1011C0005927990F4795607800380895FF0C90E8EB
:1011D0009027110F9795F794092F0895102FBD2C84
:1011E000DE2CEF2CF02E11234AF4B094D094E0942E
:1011F000F0949FEFB91AD90AE90AF90A0EE1FF2023
:1012000039F4FE2CED2CDB2CBB240850C2F767C050
:1012100032F00A95BB0CDD1CEE1CFF1CF9CF0E94BE
:101220001209D4CFB7FE089590E8B91611F4D0FE94
:1012300008959FEFD91AE90AF90A09F40395089568
:10124000502F2D2D3E2D4F2D612F08952DEC3CEC70
:101250004CEC5DE366270FC09DDFF2DFDD24EE245A
:1012600090E8F92E0FE307C09ADF05C02227332745
:1012700040E251E46627552351F1002381F194DFC8
:1012800071F11627005850580894050B18F407FD03
:1012900003C025C007FD23C0469537952795F694D2
:1012A000E794D79422D0FF202AF0DD0CEE1CFF1C1F
:1012B000015073F09D2D969548F0DD203AF4EE2014
:1012C0002AF491E0D90E9927E91EF91E7FCF07C0B5
:1012D0009FE7092FF92A9FEFD92EE92E0895DD24E3
:1012E000EE24FF240027112708959F929924AA2411
:1012F000BB2488E1D216E306F40628F0D21AE30AEA
:10130000F40A089401C08894991CAA1CBB1CDD0C2B
:10131000EE1CFF1C8A9571F7D92CEA2CFB2C9F90B0
:10132000089542DFE1F25038D1F2162700585058A4
:101330000894051F12F418F4CBCF08F0D0CF0BD0CF
:10134000FF202AF0BB0CDD1CEE1CFF1C3FCF0F5F03
:101350000BF4BECF3BCF9F929924AA24BB2499279C
:1013600088E1990CAA1CBB1CDD1CEE1CFF1C30F490
:10137000920EA31EB41ED91EE91EF91E8A9589F786
:101380009F9008950CDF10DF503829F090E869270E
:101390000CC00AF045D01ACF5FE322273327442739
:1013A00001C0FDDE01DF5038B1F3003899F3902F12
:1013B000951B8BF312F434D0FACF983118F0222712
:1013C00033274427983028F0232F342F4427985070
:1013D000F9CF992329F04695379527959A95D9F70E
:1013E000912F962742F014D0B0F6F794E794D79453
:1013F0000F5F8BF66DCF10D051F008F4C1DEFF20E7
:1014000052F2DD0CEE1CFF1C0150CBF761CF67CF11
:10141000D20EE31EF41E0895D21AE30AF40A0895C8
:10142000DF92EF92FF920F931F93D22EE32EF42EB2
:10143000052F162F6F915F914F913F912F91089536
:10144000C895319600200895FBDFD02CF9DFE02C01
:10145000F7DFF02CF5DF002D0895F2DF202DF0DF0F
:10146000302DEEDF402DECDF502D089591E005C0CA
:1014700092E003C094E001C098E0E2DF0D929A95FB
:10148000E1F7089591E0882321F08894991F8A95C7
:10149000E9F7892F90950895BB270E94420A9C91F5
:1014A00098279C933197F1F798279C9308950E9471
:1014B0004C08FF27AA27BB270E94420A0823018065
:1014C0000922018200800822002619F41196D1F029
:1014D000F9CFAA27BB2700800822002619F0119611
:1014E00089F0F9CFAA27BB27EF93FF93E0E2F0E062
:1014F0000E944608FF91EF9100800822002621F407
:10150000119691F70E9449088A2F9B2F08957F9387
:101510000F93AF93BF938F939F938FB78F93E8945D
:1015200080910C010AE0081B29F49091C6000E94EA
:10153000490814C000910B01A0E0B1E07727909119
:10154000C600A00FB71F9C936894839580930C01ED
:1015500003950A3009F4002700930B019D3011F424
:101560000E9484078F918FBF9F918F91BF91AF9100
:101570000F917F9118956FB7F894882793E08D931A
:101580009A95E9F76FBF0895040F151F261F371F9F
:10159000089588278D93089581918D938823E1F78D
:1015A000089594E081918D939A95E1F70895819142
:1015B0008032E9F3F2CFF0DF11978E918032E9F3B8
:1015C0001196E7CFF4DFF8CF689401C0E894AF93A9
:1015D000BF938D9116F0919103C00E94200A902D27
:1015E000891718F011F48823A1F7BF91AF910895DE
:1015F000689463F808950FEF1FEF88279927442711
:1016000055272D913D9101960217130720F0022FC7
:10161000132F482F592F3197A1F708950000A040AC
:1016200000000C43000048426869000068656C6C6B
:101630006F007265626F6F74000073746F70706911
:0E1640006E67206D6F746F72730062796500C3
:00000001FF
