:100000000C94340018950000189500001895000015
:10001000189500001895000018950000189500002C
:10002000189500000C9436041895000018950000EF
:10003000189500001895000018950000189500000C
:1000400018950000189500000C94070618950000FC
:1000500018950000189500001895000018950000EC
:1000600018950000189500008FEF8DBFC4ECE4E6F2
:100070004E2E88E08EBFD8E0F8E05F2EA89584B7BA
:10008000082E877F84BF88E1992780936000909332
:100090006000EEEFF7E0A0E0B1E088278D933197A4
:1000A000E9F789E18093C40080E08093C50088E18E
:1000B0008093C100662474B7777F74BF8FE180930B
:1000C000600087E0809360007091C1007068709359
:1000D000C1000E946D0686E08093B10080E08093AD
:1000E000B0007091700071607093700086E0809332
:1000F000B10087E880937A0080E480937C0039988F
:100100003A983B983C983D98209A219A229A239AB3
:10011000249A259A389A319829982A982B982C98BD
:100120002D98409883E08093410180E080934401C2
:1001300080E08093450178942D9A84EF91E00E94AD
:10014000AF052D9884EF91E00E94AF052D9AE1E074
:10015000F0E00E94A0052D9800917C00007F0360D4
:1001600000937C000E94EC05AFE4B1E08D939C937A
:1001700000917C00007F046000937C000E94EC05ED
:10018000A1E5B1E08D939C9300917C00007F056018
:1001900000937C000E94EC05A3E5B1E08D939C9355
:1001A0008091600088608093600000914101003080
:1001B00018F011F00C94DE000C947C01ADE4B1E079
:1001C0000D911C910A365FEF150780E00CF481E079
:1001D0008F93ABE4B1E00D911C910A365FEF1507E8
:1001E00080E00CF481E09F91892B8F93A9E4B1E02A
:1001F0000D911C910A365FEF150780E00CF481E049
:100200009F91892B882311F40C942901AEE0B1E071
:100210008C9184FB16F40C94180189EC80934401B2
:100220008AEC8093450182E0809343010C94210184
:100230008AEC8093440189EC8093450182E08093AD
:1002400043018CE291E0A7E4B1E08D939C930C9480
:10025000790189EC8093440189EC8093450181E028
:100260008093430180E293E0A7E4B1E08D939C93F7
:1002700083E080930F0140910F0100914101041729
:1002800018F011F00C9446010C945A0170910E0173
:100290007F7E70930E0180E08093440189EC80930F
:1002A000450181E0809343018CE291E0A7E4B1E055
:1002B0008D939C9383E080930F0140910F010091F7
:1002C0004101041710F00C94790170910E017061D6
:1002D00070930E0189EC8093440180E08093450186
:1002E00081E0809343018CE291E0A7E4B1E08D933B
:1002F0009C9380E080934101A5E3B1E08C91803034
:1003000011F40C94D301E5E3F1E0A5E5B1E00E941E
:100310004706A5E3B1E088278C93A5E5B1E0E0EEC0
:10032000FCE00E94590611F00C94A8013FB6F89425
:10033000D201E4EEFCE00E94E60586E00E94D005D2
:100340000E943105229686E00E94C1050C94D301DB
:10035000EAEEFCE00E94590611F00C94D3013FB67E
:10036000F894D201E2EFFCE00E94E60580E10E94F1
:10037000D0050E943105229680E10E94C1050E94AD
:10038000BD033FB6F894D201E2E0FDE00E94E6052D
:1003900084E00E94D0050E943105229684E00E94EC
:1003A000C1050C94000000917C00007F0360009365
:1003B0007C000E94EC05A9E4B1E08D939C93009130
:1003C0007C00007F046000937C000E94EC05ABE49D
:1003D000B1E08D939C9300917C00007F05600093B9
:1003E0007C000E94EC05ADE4B1E08D939C93A9E400
:1003F000B1E00D911C91AFE4B1E04D915C91041B13
:10040000150BA9E4B1E00D931C93ABE4B1E00D91A1
:100410001C91A1E5B1E04D915C91041B150BABE47F
:10042000B1E00D931C93ADE4B1E00D911C91A3E5F7
:10043000B1E04D915C91041B150BADE4B1E00D935F
:100440001C930FEF1FEFA9E4B1E04D915C91041BE9
:10045000150BA9E4B1E00D931C930FEF1FEFABE474
:10046000B1E04D915C91041B150BABE4B1E00D9331
:100470001C930FEF1FEFADE4B1E04D915C91041BB5
:10048000150BADE4B1E00D931C93ADE4B1E00D911B
:100490001C914AE050E0041B150BADE4B1E00D9354
:1004A0001C93A9E4B1E00D911C914AE050E0041BBB
:1004B000150BA9E4B1E00D931C933FB6F894ADE49D
:1004C000B1E08D919C91D2018D939C9382E00E942A
:1004D000D005ABE4B1E08D919C91D2018D939C93BA
:1004E00082E00E94D005A9E4B1E08D919C91D201F7
:1004F0008D939C9382E00E94D0050E94C8032696AB
:1005000086E00E94C10583E080934101AEE0B1E046
:100510008C9182FB16F00C94900281E08093410153
:10052000AEE0B1E08C9183FB16F00C949A0286E069
:100530008093410100914001003011F00C94A5021C
:1005400080E283B986E0809340019FB7F894809160
:100550006000886180936000877E809360009FBF09
:100560000C94D000F894FFCF81E00E94CA0581E08E
:100570000E94CA0581E0A881B9818C93A881B981C4
:100580000C91023018F011F00C94B703A881B981D6
:100590000C91013011F00C94E60280914401AA8183
:1005A000BB818C93A5E2B0E08C9181FBAEE0B1E021
:1005B0008C9181F98C93A5E2B0E08C9182FBAEE046
:1005C000B1E08C9180F98C930C940403A881B981DB
:1005D0000C91023011F00C94040380914501AA8122
:1005E000BB818C93A5E2B0E08C9183FBAEE0B1E0DF
:1005F0008C9181F98C93A5E2B0E08C9184FBAEE004
:10060000B1E08C9180F98C93AA81BB810C91003070
:1006100011F00C94170370910E017D7F70930E0101
:1006200070910E017E7F70930E010C947B03093C48
:1006300011F00C943A03AEE0B1E08C9181FB882775
:1006400080F9809580FBAEE0B1E08C9181F98C93CC
:1006500070910E017E7F70930E01AEE0B1E08C913F
:1006600081FB16F00C94380380914301809346017E
:100670000C947B03033D11F00C944A0370910E011E
:10068000726070930E0170910E017E7F70930E0167
:100690000C947B030A3C11F00C946D0370910E01D5
:1006A0007D7F70930E01AEE0B1E08C9180FB8827D6
:1006B00080F9809580FBAEE0B1E08C9180F98C935D
:1006C000AEE0B1E08C9180FB16F00C946B0380914E
:1006D0004301809346010C947B03043D11F00C947C
:1006E0007B0370910E017D7F70930E0170910E015E
:1006F000716070930E01A881B9810C91013011F0E5
:100700000C949603AEE0B1E08C9181FBA5E2B0E0E1
:100710008C9181F98C93AEE0B1E08C9180FBA5E2E5
:10072000B0E08C9182F98C930C94AF03A881B981CD
:100730000C91023011F00C94AF03AEE0B1E08C915B
:1007400081FBA5E2B0E08C9183F98C93AEE0B1E03F
:100750008C9180FBA5E2B0E08C9184F98C93A88108
:10076000B9818C918F5F8C9310F40C94BE0282E05F
:10077000481A80E0580A2496089529982A982B98B8
:100780002C9880E08093440180E080934501089597
:100790003FBE70910E01777F70930E0170910E0134
:1007A0007B7F70930E01AA81BB814D915C91A881E2
:1007B000B9810D911C91041715071CF011F00C94D0
:1007C000E3030C94E80370910E01746070930E01C2
:1007D000AA81BB814D915C91AC81BD810D911C9131
:1007E000041715071CF011F00C94F8030C94FD038A
:1007F00070910E01786070930E01AEE0B1E08C91C3
:1008000082FB16F00C941904AC81BD814D915C9172
:10081000A881B9810D911C91041715071CF011F0E6
:100820000C9414040C94190470910E01777F70934A
:100830000E01AEE0B1E08C9183FB16F00C94350410
:10084000A881B9814D915C91AC81BD810D911C91C4
:10085000041715071CF011F00C9430040C943504A7
:1008600070910E017B7F70930E0108950F921F927D
:100870002F923F924F925F927F92AF92BF920F93CF
:100880001F932F933F934F935F936F937F938F9318
:100890009F93AF93BF93CF93DF93EF93FF938FB764
:1008A0008F93ADE0B1E08C918F5F8C9300910D013F
:1008B000013010F40C946B0470910E017068709309
:1008C0000E0170910E017F7B70930E0170910E01ED
:1008D0007F7D70930E0100910D01043010F40C9493
:1008E000800470910E017F7770930E0170910E015C
:1008F000706470930E0170910E017F7D70930E01F4
:1009000000910D01073010F40C94950470910E01C4
:100910007F7770930E0170910E017F7B70930E01B3
:1009200070910E01706270930E0100910D010930FB
:1009300010F40C949E0480E080930D013FB6F8946F
:10094000A0E4B1E0BA93AA930E94EC0422963FB6C9
:10095000F894A6E4B1E0BA93AA930E94EC0422961C
:100960003FB6F894A7E4B1E0BA93AA930E940705B2
:10097000229600914601003011F00C94C1040E94AF
:10098000B402A7E4B1E00D911C91003050E01507CE
:1009900011F00C94CD040E94BD0373E87093B20073
:1009A0008F918FBFFF91EF91DF91CF91BF91AF9169
:1009B0009F918F917F916F915F914F913F912F9177
:1009C0001F910F91BF90AF907F905F904F903F909D
:1009D0002F901F900F9018953FBEA881B9810C9160
:1009E000023010F40C94FB04A881B9818C918250E0
:1009F0008C930C940605A881B9810C91013011F0FB
:100A00000C94060580E0A881B9818C9308953FBEBF
:100A1000A881B9810D911C91023050E0150710F4A6
:100A20000C942005A881B9810D911C9142E050E001
:100A3000041B150BA881B9810D931C930C943005F0
:100A4000A881B9810D911C91013050E0150711F07A
:100A50000C94300580E090E0A881B9818D939C933F
:100A600008953FBEF894A881B9810E9490050E9424
:100A7000960578940895A5E3B1E03AE00E94570501
:100A8000AAE0B1E00E943B068AE0A5E3B1E00E9443
:100A9000DE058DE0A5E3B1E00E94DE05E5E3F1E0CF
:100AA000A5E3B1E00E9457060895ACE4B8E012D087
:100AB0008D3039F03323D9F38D933A9563FE39D0D5
:100AC000F6CF63FC04C08DE034D08AE032D08827B2
:100AD0008C9308950F929F93AF93BF937F938091D0
:100AE0000C018823E1F3F89480910C018A9580939E
:100AF0000C0190910A01A0E0B1E0A90F0024B01D03
:100B00008C9193959A3009F4992790930A017894DF
:100B10007F91BF91AF919F910F900895ACE4B8E0A1
:100B20008D91882311F005D0FBCF08958DE001D081
:100B30008AE00090C00005FEFCCF8093C6000895B7
:100B400088EE93E00CD03197D9F708953197F1F7FB
:100B50000895689462F80895E89462F80895EF9310
:100B6000FF93EE27E82BE92B31F0E0EAFFE0319725
:100B7000F1F70197D1F7FF91EF910895481A590ABB
:100B80000895481A8827580A08955A924A92480E9A
:100B9000591E08955A924A92480E8827581E089561
:100BA0005A924A92480E8827581E88E8481688E0CC
:100BB000580608F40895689462F80895FD019D911F
:100BC000981709F091939923D1F708950E9403068D
:100BD0000D920020D9F7089570917A007064709397
:100BE0007A0000907A0006FCFCCF70917A00706465
:100BF00070937A0000907A0006FCFCCF8091780018
:100C0000909179000895C8953196002008957F93BA
:100C10000F93AF93BF938F939F938FB78F93E89466
:100C200080910C010AE0081B29F49091C6000E94F3
:100C3000A90514C000910B01A0E0B1E077279091C5
:100C4000C600A00FB71F9C936894839580930C01F6
:100C500003950A3009F4002700930B019D3011F42D
:100C60000E943B058F918FBF9F918F91BF91AF9154
:100C70000F917F9118956FB7F894882793E08D9323
:100C80009A95E9F76FBF089588278D93089581910C
:100C90008D938823E1F7089581918032E9F3F8CFAD
:100CA000F6DF11978E918032E9F31196EDCFF4DFE4
:100CB000F8CF689401C0E894AF93BF938D9116F07C
:100CC000919103C00E940306902D891718F011F42A
:100CD0008823A1F7BF91AF910895689463F80895B0
:100CE0006869000068656C6C6F007265626F6F7494
:100CF000000073746F7070696E67206D6F746F722F
:060D00007300627965003A
:00000001FF
